:020000040800F2
:10000000000002209D020008A5020008A9020008C5
:100010001D03000821030008690300080000000018
:10002000000000000000000000000000850C000837
:10003000B503000800000000C10C0008390F0008DB
:10004000CD030008CD030008CD030008CD03000850
:10005000CD030008CD030008CD030008CD03000840
:10006000CD030008CD030008CD030008CD03000830
:10007000CD030008CD030008CD030008CD03000820
:10008000CD030008CD030008CD030008CD03000810
:10009000CD030008CD030008CD030008CD03000800
:1000A000CD030008CD030008CD030008CD030008F0
:1000B000CD030008CD030008CD030008CD030008E0
:1000C000CD030008CD030008CD030008CD030008D0
:1000D000CD030008CD030008CD030008CD030008C0
:1000E000CD030008CD030008CD030008CD030008B0
:1000F000CD030008CD030008CD030008CD030008A0
:10010000CD030008CD030008CD030008CD0300088F
:10011000CD030008CD030008CD030008CD0300087F
:10012000CD030008CD030008CD030008CD0300086F
:10013000CD030008CD030008CD030008CD0300085F
:10014000CD030008CD030008CD030008CD0300084F
:10015000CD030008CD030008CD030008CD0300083F
:10016000CD030008CD030008CD030008CD0300082F
:10017000CD030008CD030008CD03000800000000F7
:10018000CD030008CD03000800B583B000F002FCE9
:10019000304B314A1360314A1360314B314A03E02E
:1001A00011681960043304322F498B42F8D32A4B6B
:1001B0001A682E4B9A4204D1284B1A682C4B9A424B
:1001C00000D0FEE7234B2B4A13602B4A13602B4BC6
:1001D00002E000221A600433294A9342F9D3254BE6
:1001E0001B6813B9244B1B6803B1FEE700F0D6FB74
:1001F000694601A800F0C4F9224C234B1C1BA41033
:10020000002504E01F4B53F8253098470135AC42D8
:10021000F8DC1E4C1E4B1C1BA410002504E01B4BDD
:1002200053F8253098470135AC42F8DC0099019825
:1002300000F020FD0546174C174B1C1BA41004E0D2
:10024000013C144B53F824309847002CF8DC284626
:1002500000F032F9BABADECA00000020940800208B
:1002600000000020806A00089808002078563412A8
:100270003254769898080020300B0020980800200F
:10028000340B0020F8030008F8030008F803000806
:10029000F8030008F8030008F803000808B5FFF7A2
:1002A00073FF00BF00BEFEE71EF0040F0CBFEFF3AC
:1002B0000880EFF309807146414A10472DE9F0416B
:1002C00082B004468846134B5E6B9F6B9D6A1B6B26
:1002D00013F0020F0DD00F4BDB6A002B09DA4BF63F
:1002E000AB6100F0D7FB20B14FF00042094BDA625E
:1002F0000CE0094800F0FAFACDF800803B4632469F
:100300002946204600F04EFB00BEFEE702B0BDE8E5
:10031000F08100BF00ED00E0B867000800BEFEE716
:100320001EF0040F0CBFEFF30880EFF30980714655
:10033000244A10472DE9F04182B004468846084B14
:100340005E6B9F6B9D6A074800F0D0FACDF8008085
:100350003B4632462946204600F024FB00BEFEE71D
:1003600000ED00E0C86700081EF0040F0CBFEFF3BB
:100370000880EFF309807146134A10472DE9F041D8
:1003800082B004468846084B5E6B9F6B9D6A0748A7
:1003900000F0ACFACDF800803B46324629462046B4
:1003A00000F000FB00BEFEE700ED00E0D4670008AF
:1003B00000BEFEE700BEFEE700BEFEE7704700009D
:1003C000BD020008350300087D030008FEE700BFFA
:1003D000806A00080000002098080020806A000859
:1003E000000000100000001098080020340B0020CE
:0803F0000000001000000010E5
:1004000008B50D4B1B6813B90C4A0B4B1A600A4B0D
:100410001A68C31C23F00303134409498B4206D90D
:1004200000F08EFD0C2303604FF0FF3008BD024941
:100430000B60104608BD00BF9C080020340B002054
:1004400000FC012030B50025132420462946ABBE10
:100450000446204630BD00BF38B5044600F070FDAC
:100460000546FFF7EFFF2860204638BDB0F1FF3F9B
:1004700003D108B5FFF7F0FF08BD704710B504467B
:100480000B4B186818B1836B0BB900F0DDFD132C12
:1004900009D8084B53F83430B3F1FF3F05D0054875
:1004A00000EBC40010BD002010BD002010BD00BF37
:1004B000480400202409002000B508B9044D00E0DC
:1004C000044D182420462946ABBE0446FEE700BF73
:1004D00026000200230002002DE9F04184B0234FE2
:1004E00001970326039600230293012401AD2046C1
:1004F0002946ABBE80461E4BC3F800800197039689
:100500000423029320462946ABBE8046194BC3F80C
:100510000080019703960823029320462946ABBE2C
:100520000446154B1C60B4F1FF3F03D1114B1A6810
:10053000114B1A60002305E04FF0FF310F4A42F8DB
:1005400033100133132BF7DD0C4B094A12681A6084
:1005500000225A60074909689960DA60064909680B
:1005600019615A6104B0BDE8F08100BF90660008CF
:10057000A4080020A0080020D008002024090020A2
:10058000F0B583B005460C46324B00934F230193E0
:100590006F46152630463946ABBE0646002E46D17C
:1005A0002C4B83F84F60009AB64630463AE0E8B9E3
:1005B000294F3F6847FA83F393F90130002B03DB9F
:1005C000092903D1012302E0012300E0002343BBFA
:1005D000082E2DDC222901D0272901D101328E4697
:1005E0001E4B43F82620013601201AE0BEF1000F11
:1005F00005D08E4515D100201070864611E0164FAB
:100600003F6847FA83F393F90130002B03DB092994
:1006100003D1012302E0012300E000230BB10020FD
:1006200010700132137859B20029C0D100E00026C1
:100630002EB9084B00221A70084A13600136074B86
:10064000002243F826202E602360FFF745FF03B009
:10065000F0BD00BFD40800201C000020A808002026
:1006600030B585B001900291039201AD0624204679
:100670002946ABBE04462046FFF7F8FE05B030BD64
:1006800070B50E461546FFF7F9FE30B900F058FC7C
:10069000092303604FF0FF3070BD04462A463146FF
:1006A0000068FFF7DDFFB0F1FF3F03D0281A636851
:1006B0000344636070BD00BFF0B583B00C461546BF
:1006C000FFF7DCFE30B900F03BFC092303604FF07C
:1006D000FF304DE00646022D06D900F031FC16230E
:1006E00003604FF0FF3043E0012D13D14368E4185D
:1006F0000FD500F025FC162303607368002B2CDD5A
:10070000002C2DDD00F01CFC8B2303604FF0FF302C
:100710002EE00025022D0FD1336802AF47F8083DC7
:100720000C2528463946ABBE05462846FFF79EFEF7
:10073000B0F1FF3F17D004443368009301946F4633
:100740000A2528463946ABBE05462846FFF78EFEE9
:1007500000280BDB746020460AE04FF0FF3007E012
:100760004FF0FF3004E04FF0FF3001E04FF0FF307A
:1007700003B0F0BD08B5FFF79FFF08BD30B585B0E9
:1007800001900291039201AD052420462946ABBE9B
:1007900004462046FFF76AFE05B030BD70B50E4630
:1007A0001446FFF76BFE30B900F0CAFB0923036063
:1007B0004FF0FF3070BD0546224631460068FFF716
:1007C000DDFF021E09DBA01A6B6803446B609442D4
:1007D00005D10020FFF740FE70BD4FF0FF3070BD27
:1007E00030B583B002AD45F8040D022420462946F9
:1007F000ABBE04462046FFF739FE03B030BD00BF54
:1008000038B50446FFF73AFE30B900F099FB0923EA
:1008100003604FF0FF3038BD0546013C012C09D87C
:10082000094B9A681B699A4204D14FF0FF33036069
:10083000002038BD2868FFF7D3FF18B94FF0FF320A
:100840002A6038BD38BD00BF2409002070B50C46B1
:10085000FFF714FE30B900F073FB092303604FF07B
:10086000FF3070BD0646636843F4005363604FF485
:100870008063E3620C2528463146ABBE0546284618
:10088000FFF7F4FDB0F1FF3F02D02061002070BD02
:100890004FF0FF3070BD00BF38B505460C463C2216
:1008A0000021204600F056FF21462846FFF7CEFFE4
:1008B00038BD00BF38B5FFF7E1FD28B900F040FBB7
:1008C00009230360002038BD054609242046294637
:1008D000ABBE0446012C07D000F032FB0446FFF704
:1008E000B1FD2060002038BD012038BD0FB400B537
:1008F00083B004AB53F8042B01938021064801F028
:1009000027FA002803DD0146034800F03FF803B052
:100910005DF804EB04B07047C4090020F0B585B061
:1009200006460C46174B1B6883B9174B01930423EB
:1009300002930323039301AF012528463946ABBE3A
:100940000546B5F1FF3F13D00E4B1D600D4B1B68E4
:1009500001930296039401AE052528463146ABBEAD
:100960000546B5F1FF3F06D0A54207D0601B07E062
:100970004FF0FF3004E04FF0FF3001E04FF0FF3068
:1009800005B0F0BD440A00209066000808B5FFF7E6
:10099000C5FF08BD08B500F0FBF808BD08B500F0BC
:1009A00017F908BDF8B504460D4617461E462648F9
:1009B000FFF79CFF21682548FFF798FF61682448EE
:1009C000FFF794FFA1682348FFF790FFE1682248F2
:1009D000FFF78CFF21692148FFF788FF61692048F4
:1009E000FFF784FFA1691F48FFF780FFE1691E48F8
:1009F000FFF77CFF1D48FFF779FF29461C48FFF7EA
:100A000075FF1C4CE16A1C48FFF770FF216B1B4807
:100A1000FFF76CFFE16B1A48FFF768FF15F0800FD6
:100A200003D039461748FFF761FF15F4004F03D094
:100A300031461548FFF75AFF1448FFF757FF06994C
:100A40001348FFF753FFF8BD9C660008AC6600082A
:100A5000BC660008CC660008DC660008EC6600088E
:100A6000FC6600080C6700081C6700082C6700087B
:100A70003867000800ED00E0486700085867000884
:100A800068670008786700088867000898670008AA
:100A9000A067000838B583691B888B426ED1044675
:100AA00003684568013B302B6AD8DFE803F0411D3D
:100AB0006262592C2F291919691919191919321932
:100AC00020691923693569696969696969696969A9
:100AD000696969696969696969696969691919008F
:100AE0004FF0FF33036044E00023036041E0002344
:100AF00003603EE000232B606B60AB60EB6038E08E
:100B00000023036035E0AB68036032E0002303603C
:100B10002FE0002303602CE0BFF34F8F1949CA6810
:100B200002F4E062184B1343CB60BFF34F8FFEE734
:100B30001649286800F0F8FE70B96B6813B90123F4
:100B4000236016E0042B02D10223236011E0082B5E
:100B500002D1032323600CE04FF0FF33236008E051
:100B60002B68023B012B02D80023036001E0AB6835
:100B70000360A3690233A361012038BD002038BDA2
:100B8000002038BD00ED00E00400FA059066000882
:100B90000C4B1A6842F001021A60002199601A6831
:100BA00022F0847222F480321A60074A5A601A686E
:100BB00022F480221A60D9604FF00062034B9A60E1
:100BC000704700BF003802401030002400ED00E004
:100BD000234B9B6803F00C03042B07D0082B09D090
:100BE000002B2DD11F4A204B1A602CE01F4A1E4BB0
:100BF0001A6028E01A4B5A685B6803F03F0312F44E
:100C0000800F09D0194AB2FBF3F2154B5B68C3F3AE
:100C1000881303FB02F208E0124AB2FBF3F3104A16
:100C20005168C1F3881101FB03F20D4B5B68C3F3FC
:100C3000014301335B00B2FBF3F30B4A136002E0A4
:100C4000084A094B1A60064B9B68C3F30313084A12
:100C5000D35CDAB204490B68D3400B60704700BF25
:100C6000003802400024F4001400002000127A0032
:100C70000400002008B5024800F0F0FD002008BD87
:100C8000E4670008074B19680868B0E8F00F80F3C4
:100C90000988BFF36F8F4FF0000080F311884EF08A
:100CA0000D0E7047E00A0020EFF311804FF0500165
:100CB00081F311887047002080F31188704700BFCE
:100CC000EFF30980BFF36F8F0D4B1A6820E9F00F27
:100CD00010602DE908404FF0500080F3118800F0BB
:100CE000E7F84FF0000080F31188BDE8084019686C
:100CF0000868B0E8F00F80F30988BFF36F8F704782
:100D0000E00A002008B5FFF7CFFF00F043F818B164
:100D10004FF08052024B1A600020FFF7CDFF08BD54
:100D200004ED00E043684B609A688A609A685160FD
:100D30009960086103680133036070470369426882
:100D4000816891608268416851605A68904201D11F
:100D500082685A6000220261186801381860704782
:100D60000A4B1B681B680BB9012300E0002323B169
:100D70004FF0FF32064B1A607047044B1B68DB686C
:100D8000DB685A68024B1A60704700BF480A0020AF
:100D900018000020F8B53B4B1B68002B64D13A4B80
:100DA0001A6801321A601E6896B9384B1B681B68B6
:100DB00013B1FFF779FFFEE7344A1168344B186826
:100DC00010601960334A136801331360FFF7C8FFDE
:100DD000314B1B689E4203D200243AE0012400E01C
:100DE00000242A4B1B681B680BB9012300E0002379
:100DF00023B14FF0FF32284B1A602AE0234B1B68C7
:100E0000DB68DD686B689E4202D2234A136020E0F3
:100E10002F1D3846FFF792FFAB6A1BB105F1180092
:100E2000FFF78CFFEB6A012202FA03F11B4802680C
:100E30000A43026003EB83039A00394618481044C2
:100E4000FFF770FFEA6A174B1B68DB6A9A42C5D24C
:100E5000C7E7144B1B68DB6A03EB83039A00104B54
:100E60009B58012B06D806E00F4A13680133136024
:100E7000002400E001240D4B1B6803B1012420462F
:100E8000F8BD00BFDC0A0020E80A0020480A002064
:100E9000EC0A0020E40A002018000020F00A0020DC
:100EA000500A0020E00A00204C0A0020F40A00202A
:100EB00038B51C4B1B681BB101221B4B1A6038BD97
:100EC0000022194B1A60194B1B68B3FA83F3DBB28B
:100ED000C3F11F0303EB83018A0015498A5812B935
:100EE000FFF7E2FEFEE7124D9900CA189000284471
:100EF00042685468446019448A0008322A44944283
:100F000005D1606803EB83018A002A44506003EB3B
:100F100083039A00064B1A445368DA68054B1A603B
:100F200038BD00BFDC0A0020F40A0020F00A0020CF
:100F3000500A0020E00A002008B5FFF7E3FE08BDD4
:100F4000014B1868704700BF48040020014900F0B9
:100F500085B800BFC11D00082DE9F04F354B45682D
:100F6000C3630024074600F53B7204230321C0F845
:100F7000E412C0F8E822C0F8E04283B02C606C6054
:100F8000AC606C66EC812C616C61AC61AB8121461C
:100F900005F15C00082200F0DDFBBE68DFF898B0C8
:100FA000DFF898A0DFF89890DFF89880C5F820B0B7
:100FB00001230922C5F824A0C5F82890C5F82C8083
:100FC000ED612146F381B28106F15C00346074600A
:100FD000B460746634617461B4610822019300F0F6
:100FE000B9FBFD68F66112200222C6F820B0C6F8EF
:100FF00024A0C6F82890C6F82C802146A881EA8152
:101000002C606C60AC606C662C616C61AC6105F14D
:101010005C00082200F09EFB019BED61C5F820B04A
:10102000C5F824A0C5F82890C5F82C80BB6303B090
:10103000BDE8F08F4D0F000891180008B5180008A2
:10104000ED1800080D190008836B03B17047FFF716
:1010500083BF00BF704700BF704700BF2DE9F84352
:1010600010F538771FD0884606464FF000097D6896
:10107000BC68013D11D4A389012B05F1FF3508D9C6
:10108000B4F90E3001332146304602D0C04749EA58
:1010900000096B1C04F16804EDD13F68002FE6D114
:1010A0004846BDE8F883B9464846BDE8F88300BF26
:1010B0002DE9F04F01F10B05162D83B0064640F2E5
:1010C0009F8035F0070500F1BF80A94200F2BC8087
:1010D00000F08EFBB5F5FC7FC0F09C826B0A00F03F
:1010E000BA80042B00F28381A80900F1390E4FEA7F
:1010F0004E033830C44F07EB8303A3F108015C684B
:10110000A14207D1ACE0002A80F2AC80E468A142A1
:1011100000F0A680636823F003035A1B0F2AF2DD58
:10112000B9493C6901F1080E744500F0B381636868
:1011300023F003035A1B0F2A00F39981002AC1F8F8
:1011400014E0C1F810E080F29E80B3F5007F80F0DB
:101150006781DB0803F1010C01229B1002FA03F303
:101160004A6851F83C80C4F8088001EBCC091A4366
:10117000A9F10803E3604A6041F83C40C8F80C401C
:10118000831001249C40944200F28A80144206D1CC
:1011900020F003006400144200F10400FAD007EBD1
:1011A000C009CC468046DCF80C108C4507D173E1B1
:1011B000002A80F28181C9688C4500F06D814B68FE
:1011C00023F003035A1B0F2AF2DD0C46D1F80CC0A2
:1011D00054F8088F4B1945F001054D6042F00101AC
:1011E000C8F80CC03046CCF808807B613B61C3F87E
:1011F0000CE0C3F808E059609A5000F0FBFA1FE0D9
:10120000102921D800F0F4FA1025062302207E4F81
:1012100007EB8303A3F108025C68944200F0458168
:101220006368E168A56823F00303234430465A68E5
:10123000E96042F001028D605A6000F0DBFA083488
:10124000204603B0BDE8F08F00240C232046336015
:1012500003B0BDE8F08F80234FF0400E3F2049E7F8
:1012600070465DE72344E1685A68A56842F00102D0
:10127000E96030468D605A6000F0BCFA08342046C0
:1012800003B0BDE8F08F234430465A6842F00102B3
:101290005A6000F0AFFA0834204603B0BDE8F08F82
:1012A000BC68636823F00308A84504D3C5EB0803B2
:1012B0000F2B00F38C80554BDFF860911A68D9F83A
:1012C000003001332A4404EB080A00F0608102F583
:1012D00080520F3222F47F6222F00F021146304614
:1012E000019200F0C3FAB0F1FF3F8346019A00F08B
:1012F0005881824500F2FC80454B1968DA4511445B
:10130000196000F05381D9F80000DFF810E10130D6
:101310001BBFCAEB0B0A5144CEF800B019601BF09A
:10132000070100F01781C1F10800C1F58051834425
:1013300008315A44C2F30B02C2EB01094946304658
:10134000019300F093FA431C019B00F03F81CBEB2B
:1013500000024A4442F001021968C7F808B0494443
:10136000BC42CBF804201960DFF8A49016D0B8F185
:101370000F0F40F2FD806268A8F10C0323F0070311
:10138000E01802F001024FF0050E1A430F2B6260C5
:10139000C0F804E0C0F808E000F21C811D4BBC68F6
:1013A0001A68914288BF19601B4B1A6891426268A3
:1013B00088BF196022F003029542A2EB050301D811
:1013C0000F2B04DC304600F015FA002438E76219D0
:1013D00043F0010345F0010565603046BA60536093
:1013E00000F008FA0834204603B0BDE8F08F142B53
:1013F00071D9542B00F2A480280B00F16F0E4FEA34
:101400004E036E3076E600BF4C040020000B002037
:10141000040B0020FC0A0020F80A002058080020D5
:101420005A0A042A5ED9142A00F2B38002F15C0140
:1014300049005B3207EB810C57F82110DFF8DC81A3
:10144000ACF1080C8C4500F088804A6822F0030259
:10145000934202D289688C45F7D1D1F80CC07A68E2
:10146000C4F80CC0A160CCF80840CC6088E66319D1
:1014700042F0010745F00105656030464B610B61A4
:10148000C3F80CE0C3F808E05F609A50083400F03D
:10149000B1F9D5E64A6873E608F1010818F0030FC0
:1014A0000CF1080C7FF47FAE30E0DC68A34208BF8B
:1014B00002303FF435AEB3E60B440C465A68C968B7
:1014C00054F8085F42F001025A603046E9608D60CE
:1014D00000F090F9B4E603F15C0E03F15B004FEA13
:1014E0004E0307E69A0902F1390149003832A1E7B3
:1014F000BC424A4B3FF400AF9C68626822F0030292
:101500005AE759F80839994540F0828010F0030FE6
:1015100000F1FF30F5D17B6823EA04037B606400AF
:101520009C423FF6BDAE002C3FF4BAAE1C42404692
:101530007FF435AE64001C4200F10400FAD02EE6C0
:10154000B3F5AA7F18D8E80B00F1780E4FEA4E03E6
:101550007730CFE54FF48051EBE60121D8F8043025
:10156000921001FA02F21A43C8F80420614677E7A4
:101570000123CBF8043025E740F25452934220D89F
:10158000A80C00F17D0E4FEA4E037C30B2E510321C
:10159000A4E6542A26D81A0B02F16F0149006E32D4
:1015A00048E7BC68626822F0030205E7CAF30B0053
:1015B00000287FF4A8AE4244BB6842F001025A60A2
:1015C000ECE6FE234FF07F0E7E2093E501224FF0E4
:1015D0000009C1E604F10801304600F03BFDD9F8EE
:1015E0000010DBE6B2F5AA7F05D8DA0B02F178012C
:1015F000490077321EE740F254518A4205D89A0CCE
:1016000002F17D0149007C3214E7FE217E2211E7C0
:101610007B6884E7E808431C5B00F8E54C04002085
:10162000844641EA000313F003036DD1403A41D3ED
:1016300051F8043B40F8043B51F8043B40F8043BAC
:1016400051F8043B40F8043B51F8043B40F8043B9C
:1016500051F8043B40F8043B51F8043B40F8043B8C
:1016600051F8043B40F8043B51F8043B40F8043B7C
:1016700051F8043B40F8043B51F8043B40F8043B6C
:1016800051F8043B40F8043B51F8043B40F8043B5C
:1016900051F8043B40F8043B51F8043B40F8043B4C
:1016A00051F8043B40F8043B51F8043B40F8043B3C
:1016B000403ABDD2303211D351F8043B40F8043BDC
:1016C00051F8043B40F8043B51F8043B40F8043B1C
:1016D00051F8043B40F8043B103AEDD20C3205D3EC
:1016E00051F8043B40F8043B043AF9D2043208D0E4
:1016F000D2071CBF11F8013B00F8013B01D30B8856
:1017000003806046704700BF082A13D38B078DD033
:1017100010F003038AD0C3F10403D21ADB071CBF05
:1017200011F8013B00F8013B80D331F8023B20F86F
:10173000023B7BE7043AD9D3013A11F8013B00F8A8
:10174000013BF9D20B7803704B7843708B78837030
:101750006046704770B4840746D0541E002A41D0BA
:10176000CDB2034602E0621EE4B3144603F8015B07
:101770009A07F8D1032C2ED9CDB245EA05250F2CB6
:1017800045EA054519D903F110022646103E0F2EF1
:1017900042F8105C42F80C5C42F8085C42F8045CC9
:1017A00002F11002F2D8A4F1100222F00F0204F0AC
:1017B0000F041032032C13440DD91E462246043A5E
:1017C000032A46F8045BFAD8221F22F003020432EF
:1017D000134404F003042CB1C9B21C4403F8011BE8
:1017E000A342FBD170BC704714460346C2E700BF5A
:1017F000704700BF704700BFF0B5054689B0084686
:101800000C4600F0FDF9AB6B134F04940126441C09
:1018100004A9022203940590AC68069707960191EB
:101820000292ABB1A3899A0406D4626E43F40053CA
:1018300022F40052A38162662146284601AA00F0E4
:10184000F1FC002814BF4FF0FF300A2009B0F0BDB2
:101850002846FFF7F9FBE5E734670008024B01462D
:101860001868FFF7C9BF00BF4804002038B5074C0F
:101870000023054608462360FEF7C2FD431C00D046
:1018800038BD2368002BFBD02B6038BD2C0B00200B
:1018900010B50C46B1F90E1000F00EFF002803DB66
:1018A000236D0344236510BDA38923F48053A381D2
:1018B00010BD00BF2DE9F04116468A891F46D305A9
:1018C0000C46054606D500220223B1F90E1000F0A1
:1018D00029FEA289B4F90E1022F48052A2813B465F
:1018E00032462846BDE8F04100F042BA10B50C4639
:1018F000B1F90E1000F016FEA389421C0EBF23F4AE
:10190000805343F480532065A38110BDB1F90E10BC
:1019100000F044BA000000000000000000000000D9
:10192000A2EB0300704700BF02780B78012A28BFA2
:101930009A42F5D16DE9044540EA0104CDE9026718
:101940006FF0000C4FEA447212B380EA010414F005
:10195000070F6AD100F0070420F0070004F0030528
:1019600021F007014FEAC505F0E8042314F0040F45
:10197000F1E804670CFA05F462EA040266EA040678
:101980000AD063EA0403624667EA0407664603E096
:10199000F0E80423F1E8046782FA4CF582EA0604D1
:1019A000A4FA8CF46CBB83FA4CF583EA0705A5FA1C
:1019B0008CF595B950E9022351E9026782FA4CF59A
:1019C00082EA0604A4FA8CF483FA4CF583EA07054C
:1019D000A5FA8CF52543DBD09CB92DBAB5FA85F470
:1019E00024F0070427FA04F1DDE9026723FA04F37F
:1019F00003F0FF0001F0FF01FDE80445A0EB01004A
:101A0000704724BAB4FA84F424F0070426FA04F1E7
:101A1000DDE9026722FA04F202F0FF0001F0FF01A3
:101A2000FDE80445A0EB0100704714F0030F3CD122
:101A300010F0030428D150F8082B51F8083B82FA23
:101A40004CF582EA0305A5FA8CF55DB950F8042C33
:101A500051F8043C82FA4CF582EA0305A5FA8CF5AC
:101A6000002DE8D02DBAB5FA85F424F0070423FA46
:101A700004F122FA04F202F0FF0001F0FF01FDE898
:101A80000445A0EB010070474FEAC40420F00300B6
:101A900050F8082B21F0030151F8083B0CFA04F42C
:101AA00062EA040263EA0403C9E710F003041AD0EF
:101AB000A1EB040120F00300E40750F8042B06D04A
:101AC0000FD28B785FFAA2F4E41A06D12BB1CB784F
:101AD0005FFAB2F4E41A00D11BB920465DF8104B4E
:101AE000704701F1040150F8042BCC0721F00301E9
:101AF00051F8043B48D824D222F07F4482FA4CF5B6
:101B000094EA1325A5FA8CF50AD165B951F8043B7E
:101B100084EA0204B4EB036F0ED150F8042BEBE718
:101B20004FEA132355E035F07F454DD10878FDE8A5
:101B30000445C0F1000070474FEA126203F0FF0352
:101B400047E002EA1C4482FA4CF594EA1345A5FAF0
:101B50008CF50AD165B951F8043B84EA0204B4EB70
:101B6000034F0CD150F8042BEBE74FEA134330E05E
:101B700015EA1C4528D10B884FEA124229E04FEAAA
:101B8000124203EA1C4324E002F0FF0482FA4CF5FF
:101B900094EA1365A5FA8CF50AD165B951F8043BAE
:101BA00084EA0204B4EB032F09D150F8042BEBE7CD
:101BB0004FEA13630DE015F0FF0F05D10B684FEAF4
:101BC000122223F07F4304E04FF00000FDE80445BB
:101BD000704712BA1BBA82FA4CF482EA0304A4FAE0
:101BE0008CF5B5FA85F402FA04F203FA04F34FEA2D
:101BF0001260FDE80445A0EB136070470000000090
:101C000090F800F06DE9024520F007016FF0000C3C
:101C100010F0070491F820F040F049804FF00004E4
:101C20006FF00700D1E9002391F840F000F10800BF
:101C300082FA4CF2A4FA8CF283FA4CF3A2FA8CF3F7
:101C40004BBBD1E9022382FA4CF200F10800A4FA5E
:101C50008CF283FA4CF3A2FA8CF3E3B9D1E90423B2
:101C600082FA4CF200F10800A4FA8CF283FA4CF3E9
:101C7000A2FA8CF37BB9D1E9062301F1200182FAA3
:101C80004CF200F10800A4FA8CF283FA4CF3A2FAA9
:101C90008CF3002BC6D0002A04BF04301A4612BAB7
:101CA000B2FA82F2FDE8024500EBD2007047D1E9BA
:101CB000002304F00305C4F100004FEAC50514F049
:101CC000040F91F840F00CFA05F562EA05021CBF1A
:101CD00063EA050362464FF00004A9E770B5002AE5
:101CE0009AB005462FDB14461A464FF40273009152
:101CF0000491ADF80C3011D0013C4FF6FF761E9BDD
:101D0000029469460594ADF80E6000F0DBFE421CBB
:101D100012DB009B00221A701AB070BD1E9B029449
:101D20004FF6FF7669460594ADF80E6000F0CAFEE6
:101D3000431C04DB1AB070BD8B232B60E9E78B23B7
:101D40002B601AB070BD8B2303604FF0FF30F1E7BA
:101D500010B582B0054C0093246813460A4601462C
:101D60002046FFF7BBFF02B010BD00BF48040020B3
:101D700070B50D46084C114606461A462846002303
:101D80002360FEF70BFD431C00D070BD2368002BC1
:101D9000FBD0336070BD00BF2C0B002038B5074C62
:101DA0000023054608462360FEF72AFD431C00D0A9
:101DB00038BD2368002BFBD02B6038BD2C0B0020D6
:101DC00000293DD070B505460C4608B1836B7BB346
:101DD000B4F90C300BB9002070BD2146284600F044
:101DE00031F8E36A064633B1E1692846984700288E
:101DF000B8BF4FF0FF36A3891B061CD4216B41B13D
:101E000004F14003994202D0284600F023F9002350
:101E10002363616C21B1284600F01CF90023636440
:101E2000FFF718F90023A381FFF716F9304670BDBC
:101E3000FFF70AF9CCE72169284600F00BF9DDE746
:101E4000002070478B899AB22DE9F0410D461107A9
:101E500080463CD46A6843F40063002AAB8173DD9A
:101E6000AE6A002E4BD09BB203F48052002192B296
:101E7000D8F80040C8F80010002A69D02A6D5F0722
:101E800005D569682B6B521A0BB1EB6BD21A002384
:101E9000E9694046B047461C3CD0AB892A692A60B4
:101EA00023F400639BB20022AB81DB046A6049D457
:101EB000296BC8F8004011B305F14003994202D0E4
:101EC000404600F0C7F800202863BDE8F0812E6985
:101ED000AEB12C682E6090070CBF6B690023A41B69
:101EE000AB600AE0234632466F6AE9694046B8476C
:101EF0000028A4EB0004064404DD002CF2DC0020E2
:101F0000BDE8F081AB8943F04003AB814FF0FF3077
:101F1000BDE8F081D8F800201D2AF3D81A4BD34031
:101F200003F0010383F00101002BEBD0AB89696062
:101F300023F400639BB229692960D904AB81B7D52A
:101F4000002AB5D12865B3E7EA6B002A88DCD6E71A
:101F50000123E9694046B047431C024602D0AB89E1
:101F6000AE6A8CE7D8F80030002BF8D01D2B01D0DA
:101F7000162B02D1C8F80040C1E7AB8943F04003FB
:101F8000AB81BDE8F08100BF0100402010B50446E0
:101F900082B008B1836B53B1B1F90C0008B902B03B
:101FA00010BD204602B0BDE81040FFF74BBF0191C5
:101FB000FFF74AF80199EFE7F8B5234F0C460646BC
:101FC000FFF716FCBB685D6825F00305291B01F6C9
:101FD000EF7121F47F6121F00F01A1F58054B4F578
:101FE000805F07DB00213046FFF740FCBB682B44D5
:101FF000984204D03046FFF7FDFB0020F8BD614257
:102000003046FFF733FC01300DD0104BBA68196829
:102010002D1B45F001053046091B55601960FFF77F
:10202000E9FB0120F8BD00213046FFF71FFCBA682C
:10203000831A0F2BDEDD064C0449246843F00103AC
:10204000001B53600860D5E74C040020040B0020FF
:1020500058080020002945D02DE9F0410D46804662
:10206000FFF7C6FB55F8047C6A4927F00103A5F188
:102070000804E2188E685068B24220F0030062D073
:10208000FE0750600BD455F8087CE41B01F1080EE4
:10209000A56875453B446FD0E768EF60BD601518D3
:1020A0006D68ED0742D543F001026260E350B3F57D
:1020B000007F18D2DB085A1C4D6851F83270A760B7
:1020C00001209B1000FA03F301EBC2001D43083806
:1020D000E0604D6041F83240FC604046BDE8F041B0
:1020E000FFF788BB70475A0A042A53D89A0902F1AD
:1020F00039077F0002F1380501EB870051F82720EE
:102100004449083890424DD0516821F003018B4278
:1021100002D292689042F7D1D068E060A2608460F9
:10212000D4604046BDE8F041FFF764BB95683A4F84
:10213000BD4203443FD0D068E86043F001028560AF
:102140006260E350B3E7FF07034407D455F8082C57
:10215000A41A1344A068E268C26090602F4A126813
:1021600043F00100934260608C60B6D32C4B404634
:102170001968FFF721FFB0E711184968C90744D46F
:102180009168D268CA60034443F0010091606060C6
:10219000E350A2E7142A17D802F15C077F0002F18E
:1021A0005B05A9E7AA104B68012505FA02F2134363
:1021B0004B600246B1E743F001024C610C61E560FF
:1021C000A5606260E35088E7542A06D81A0B02F132
:1021D0006F077F0002F16E058EE7B2F5AA7F06D881
:1021E000DA0B02F178077F0002F1770584E740F20D
:1021F0005450824206D89A0C02F17D077F0002F10A
:102200007C0579E7FE277E2576E743F001026260D0
:10221000E35062E74C0400205404002054080020DE
:10222000000B00209368002B76D02DE9F04F8B89AE
:1022300085B00C4619070190164629D522693AB394
:1022400003F002081FFA88F0356800282FD04FF0FD
:102250000009B34FC846B246B84543464A4628BF70
:102260003B460198B8F1000F50D0E169666AB0476B
:10227000002871DDDAF808301B1A8144C0EB080829
:10228000CAF80830002BE7D1002005B0BDE8F08F78
:102290002146019801F052FF002840F03981A389BE
:1022A000356803F002081FFA88F00028CFD113F038
:1022B00001095AD14F4602961FB39A05D4F80880F7
:1022C0002CD54745C246C0F0A38013F4906F40F070
:1022D000B08020685246494600F08AF9A068236819
:1022E000C8EB00005344A06023603846029A93680C
:1022F0001B1A81443F1A9360002BC5D0A389002F7D
:10230000DBD1D5F800906F680835D5E7D5F8009097
:10231000D5F8048008359FE70020704720682369BE
:10232000984203D861698F4280F0B680B84528BFD3
:10233000B8464246494600F05BF9A3682268C8EBFC
:1023400003034244A3602260002B48D12146019838
:10235000FFF71CFE002842D0A38943F040034FF052
:10236000FF30A38105B0BDE8F08F80460290824621
:102370008146B9F1000F2AD0029B002B4CD0206877
:1023800023696269C845C34628BFCB4698425F4669
:1023900004D9A36813449B4500F39080934520DB48
:1023A0001346676AE16901985246B847071ED3DDB4
:1023B000B8EB070823D0B368DB1BBA44C7EB0909A5
:1023C000B360002B3FF460AFB9F1000FD4D100230C
:1023D000D5F800A0D5F8049002930835C9E7404627
:1023E00084E75A46514600F003F9A2682368CBEB14
:1023F00002025B44B8EB0708A2602360DBD12146F0
:102400000198FFF7C3FD0028A6D1CDF80880D2E7D8
:102410002068B846BA465DE74A460A21504600F0B1
:1024200097F800286FD001300123CAEB000802930F
:10243000A5E762692068216902EB4208C1EB000A46
:1024400008EBD8780AF101004FEA680838444045A3
:10245000424684BF804642465B0542D511460198FC
:10246000FEF726FE8346002855D052462169FFF725
:10247000D7F8A38923F4906343F08003A381CAEBC8
:1024800008030BEB0A00C4F81480C4F810B02060F5
:10249000A360B846BA461DE76FF00043BB4228BFB1
:1024A0003B464A4693FBF1F30198666A01FB03F34E
:1024B000E169B04700283FF719AF4DE71A4651468A
:1024C000039300F095F82268039B01981A44226058
:1024D0002146FFF75BFD039B00287FF43DAF1F46BD
:1024E00066E7019800F0FEF883460028C7D1019DF9
:1024F00021692846FFF7AEFDA3890C2223F0800353
:102500009BB22A6029E7012309F10108029336E70B
:102510004FF0FF30B9E6019A0C231360A3891CE742
:1025200000FCFF7F70B50D46084C114606461A4662
:10253000284600232360FEF71DF9431C00D070BD20
:102540002368002BFBD0336070BD00BF2C0B002034
:1025500001F0FF01102A2BDB10F0070F08D010F854
:10256000013B013A8B422DD010F0070F42B3F6D158
:10257000F0B441EA012141EA014122F007047FF071
:1025800000070023F0E80256083C85EA010586EAC8
:10259000010685FA47F5A3FA87F586FA47F6A5FA04
:1025A00087F68EB9EED1F0BC01F0FF0102F0070210
:1025B00032B110F8013B013A83EA010313B1F8D1BB
:1025C0000020704701387047002D06BF354603389C
:1025D000073815F0010F07D1013015F4807F02BFD5
:1025E000013015F4C03F0130F0BC0138704700BF26
:1025F0008842F0B50DD98B1898420AD28118002A6A
:1026000051D09A1A13F8014D01F8014D9342F9D1B6
:10261000F0BD0F2A48D941EA00039B0746D100F1DB
:10262000100401F11003154653F8106C44F8106CB7
:1026300053F80C6C44F80C6C53F8086C44F8086CB4
:10264000103D53F8046C44F8046C0F2D03F1100393
:1026500004F11004E8D8A2F1100323F00F0302F0F4
:102660000F0E1033BEF1030F1944034421D91E1F6E
:102670000D467446043C55F8047B46F8047F032C51
:10268000F8D8AEF1040424F00304043423442144B4
:1026900002F0030262B1013B0A4411F8014B03F856
:1026A000014F8A42F9D1F0BD0346F3E70346F2E752
:1026B000F0BD7246EEE700BF70B50D46084C1146FE
:1026C00006461A46284600232360FDF7D9FF431C1F
:1026D00000D070BD2368002BFBD0336070BD00BFFD
:1026E0002C0B00202DE9F04F174683B0002900F095
:1026F000C1800E46814607F10B05FFF779F856F8C1
:1027000004EC162D2EF00304A6F1080840D8102280
:102710001546AF4241D8944275DAC94B996808EB27
:1027200004008842416800F0D98021F0010303448D
:102730005B68DB077DD51EF0010F35D03946484672
:10274000FEF7B6FC0746E0B156F8043C23F001035F
:102750004344A0F108029A4200F04481221F242A37
:1027600000F23181132A00F20481034632461168D7
:1027700019605168596092689A6031464846FFF77F
:1027800069FC4846FFF736F8384603B0BDE8F08FDD
:1027900025F00705002D2A46BBDA0C230020C9F8D6
:1027A000003003B0BDE8F08F56F8083CC3EB080AD0
:1027B000DAF8043023F0030C04EB0C039342BDDB86
:1027C0005746DAF80C1057F8080F221F242AC16068
:1027D000886000F21781132A40F212813168CAF82A
:1027E00008107168CAF80C101B2A00F22B810836F9
:1027F0000AF110023168116071685160B16891602E
:102800003E461C46D046631B0F2B1DD8D8F804301B
:1028100003F0010323434444C8F80430636843F0E1
:10282000010363604846FEF7E5FF304603B0BDE8AC
:10283000F08F21F003012144914221DBC3688268BB
:102840000C46D3609A60DEE7D8F8042008EB050157
:1028500002F00102154343F001020B44C8F8045092
:102860004A605A6842F0010208315A604846FFF750
:10287000F1FBD7E7114603B0BDE8F04FFEF718BCF7
:102880001EF0010F7FF45AAF56F8083CC3EB080A5C
:10289000DAF8043023F0030C01EB0C0E96458BDBC9
:1028A000C36882685746D3609A6057F8081FDAF801
:1028B0000C30CB60221F242A996000F29980132AE1
:1028C00062D93368CAF808307368CAF80C301B2A1A
:1028D00000F2A08008360AF1100356E021F0030B45
:1028E000A34405F11000834559DA1EF0010F7FF46F
:1028F00025AF56F8081CC1EB080ADAF8041021F0DD
:10290000030CE34458453FF757AF5746DAF80C102D
:1029100057F8080F221F242AC160886000F2B48093
:10292000132A40F2A5803168CAF808107168CAF805
:102930000C101B2A00F2AF8008360AF11002316831
:10294000116071685160B16891600AEB0501C5EBD7
:102950000B0242F0010299604A60DAF8043003F099
:1029600001031D434846CAF80450FEF743FF3846AA
:102970005CE733680360736843601B2A27D800F163
:10298000080306F10802F2E63B4632681A607268F4
:102990005A60B2689A603E467446D04633E708EB08
:1029A0000501C5EB0B0B4BF0010299604A6056F82C
:1029B000043C03F001031D43484646F8045CFEF75F
:1029C00019FF304632E73146FFF712FED5E6B3680D
:1029D0008360F368C360242A28D000F1100306F155
:1029E0001002C4E650F8043C23F003031C440AE739
:1029F000314638467446D046FFF7FAFD3E4602E7B8
:102A00003A46F7E6314638461C46D046FFF7F0FD19
:102A10003E46F8E6B368CAF81030F368CAF81430D6
:102A2000242A1BD010360AF11803AEE7336903617C
:102A30007369436106F1180200F1180397E600BFBD
:102A40004C040020B168CAF81010F168CAF81410DC
:102A5000242A0FD010360AF11802CBE63369CAF8DF
:102A600018307369CAF81C3018360AF120038CE755
:102A70003A4664E73269CAF818207269CAF81C201D
:102A800018360AF12002B5E6314638460193FFF7C1
:102A9000AFFD019B59E7B168CAF81010F168CAF898
:102AA0001410242A03D010360AF1180247E73269BD
:102AB000CAF818207269CAF81C2018360AF12002D8
:102AC0003DE700BF2DE9F04FBFB00C46079192469D
:102AD0000D93099002F054FB036814931846FFF716
:102AE0008FF8A38915901D0603D52369002B01F0EB
:102AF000278100231A4611932393229316930A9356
:102B00002EAB21939946129213929AF800305446B4
:102B1000EBB1252B02D11AE0252B03D014F8013F8D
:102B2000002BF9D1CAEB04058DB1229B239AC9F879
:102B300000A001332A44072BC9F8045023922293A2
:102B400000F3A68009F108090A9B2B440A93237815
:102B5000002B00F0A68000231A468DF86730194636
:102B60000B9306934FF0FF3B637804F1010A5D4637
:102B70000AF1010AA3F12000582800F21884DFE8C6
:102B800010F07C03160416048403160416041604BD
:102B90001604160416048B03990316045D00E20064
:102BA0001604FE00050105010501050105010501E9
:102BB0000501050105011604160416041604160481
:102BC00016041604160416041604150184021604CD
:102BD00084021604160416041604BA021604160417
:102BE000C10216041604160416041604EB02160499
:102BF0001604190316041604160416041604160403
:102C000016041604160416045A036D038402840283
:102C1000840275036D0316041604C4031604CE0360
:102C2000A3006400E1031604E80316049E031604DF
:102C30001604AF030B980D9340420B90069B43F094
:102C4000040306939AF8003092E70D98AB460021F2
:102C500004688DF86710071D0698302378228B458D
:102C60008DF868304FF000058DF8692040F00203C0
:102C7000C0F2BA8320F0800343F00203069354EAC3
:102C800005030D9700F086830F460F92B248C2E20B
:102C900021AA0799099802F01FFE48B90DF1B80959
:102CA00052E7239B23B10998079921AA02F014FE49
:102CB000079B9B8913F0400F0A9B18BF4FF0FF330F
:102CC00018463FB0BDE8F08F0F93AB46002A41F0A5
:102CD0000482069A12F0200300F022820D9F07372B
:102CE00027F00703002703F10801BB450D91D3E945
:102CF00000458DF86770C0F2A68622F08003069327
:102D000054EA050300F068832EAEE20842EA4572F9
:102D1000E90804F007030D461446303354EA05026F
:102D200006F8013DF1D1069AD10740F18480302B9D
:102D300000F081803022731E06F8012C2EAAD21AD0
:102D40000C921E467AE09AF800302A2B0AF1010410
:102D500001F08A81A3F13000092898BF002501F213
:102D6000EA8014F8013B05EB850500EB4505A3F16E
:102D700030000928F5D945EAE575A246FAE6069B32
:102D800043F0800306939AF80030F1E6A3F1300097
:102D900000231C461AF8013B04EB840400EB4404B6
:102DA000A3F130000928F5D90B94E3E60F93AB4665
:102DB000002A41F0BB81069B43F010030693069B5B
:102DC000980640F120850D9F073727F00707D7E9C0
:102DD000002307F108010D9114461D46002A73F1E6
:102DE0000003C0F24D85BBF1000F9DF86770C0F283
:102DF0003585069B23F08003069354EA050300F013
:102E0000CF81002D08BF0A2CC0F0CF812EAE204606
:102E100029460A22002303F0AFFA303206F8012DCA
:102E20002046294600230A2203F0A6FA04460D464E
:102E300054EA0503EBD12EAB9B1B0C930C9B5B451B
:102E4000B8BF5B4608930023109317B1089B01336A
:102E50000893069B13F002030E9302D0089B0233E3
:102E60000893069B13F0840840F0CB820B9B089AD2
:102E70009D1A002D40F3C582102D2399229A374FB9
:102E800023DD48461024C146B046099E04E0103DAB
:102E9000102D00F1080015DD01321031072A2391B1
:102EA000229207604460F2DD21AA0799304602F0C1
:102EB00013FD00287FF4FCAE103D102D2399229ABB
:102EC0002EA8E9DC4646C846814601326C18072A1E
:102ED00023942292C9F80070C9F8045000F31F84AB
:102EE0009DF8677009F1080977B1229B013301341D
:102EF0000DF167010122072B2394229389E8060034
:102F000000F3968309F108090E9B6BB1229B0133F4
:102F100002341AA90222072B2394229389E806007F
:102F200000F3928309F10809B8F1800F00F0CD8217
:102F30000C9BC3EB0B07002F41DD102F229BDFF80A
:102F400020802FDD41462246B0464FF0100B099DF0
:102F5000079C0E460BE000BF30690008FC680008C3
:102F600050690008103F102F09F1080916DD0133E0
:102F70001032072B2392229389E84008F2DD21AA20
:102F80002146284602F0A8FC00287FF491AE103FAD
:102F9000102F239A229B0DF1B809E8DC1446324623
:102FA0004646904601333C44072B23942293C9F8AC
:102FB0000080C9F8047000F32F8309F10809069B0B
:102FC000DA0500F12082229B0C99C9F800600133D8
:102FD0000C44072B2394C9F80410229300F30683B2
:102FE00009F10809069B59073FD50B9B089A9D1AC2
:102FF000002D3ADD102D229BB54F23DD1026DDF884
:103000002480DDF81CB004E0103D102D09F1080902
:1030100018DD01331034072B23942293C9F8007074
:10302000C9F80460F0DD21AA5946404602F054FC7C
:1030300000287FF43DAE103D102D239C229B0DF106
:10304000B809E6DC01332C44072B23942293C9F8FA
:103050000070C9F8045008DD21AA0799099802F008
:103060003BFC00287FF424AE239C0A9B0B9A089912
:103070008A42ACBF9B185B180A93002C40F0C282B6
:10308000002322930DF1B8093FE50F93AB46002AC8
:1030900041F048800D9F073727F0070303F108022E
:1030A0000D921A6812925B681393129D139C284626
:1030B000214602F0E7FB012840F09984284621468A
:1030C0000022002303F008F9002840F0C7869DF88D
:1030D000677006997F4E804B21F0800106910F9911
:1030E00003224FF0000B08924729D8BF1E460C92CE
:1030F000CDF840B0A9E6069B43F0080306939AF882
:10310000003035E50F93AB46002A40F0F787069B69
:1031100043F010030693069A12F020037FF4DEAD0D
:10312000069911F0100200F07C840D988DF867303C
:10313000BBF1000F046800F104074FF00005C0F276
:1031400081840A4622F08002069254EA05020D9715
:1031500000F042811F46D7E50F93AB46002A40F0AE
:10316000D987069B43F010030693069A12F02003BA
:1031700000F02E830D9F073727F00703002703F188
:103180000801BB450D91D3E900458DF86770C0F289
:10319000658322F08003069354EA05037FF431AE81
:1031A000BBF1000F00F0FD8000243EAE303406F885
:1031B000414D40E60F93AB46002A40F0A787069B9F
:1031C00046489D0640F196800D9F073727F007037C
:1031D000D3E9004503F108020D92069A12F00107A7
:1031E00000F03E8254EA050300F071849DF83C2013
:1031F0008DF869200027069A8DF867703023BB454B
:103200008DF8683042F00203C0F2258622F0800378
:1032100043F0020306932EAE230904F00F0143EAA4
:1032200005732A091C461546435C06F8013D54EA1D
:103230000503F1D1FFE50D990F930A688DF89020F1
:1032400000230A461F468DF8673004320123089395
:10325000BB4610970D920C9324AEFAE50F93AB4644
:10326000002A3FF4ACAD8DF86710A8E5069B43F04B
:10327000400306939AF800307AE49AF80030002967
:103280007FF476AC0122202172E4069B43F0010317
:1032900006939AF800306BE40D9C23680B93184654
:1032A0000028234603F10403FFF6C4AC0D939AF8FB
:1032B00000305DE49AF8003001222B2158E40F938E
:1032C000AB46002A3FF451AF8DF867104DE700BFC1
:1032D000FC680008106900080C6900081C690008F7
:1032E0000F93AB46002A40F00D87069B98489D0639
:1032F0003FF56AAF069BDC0640F1BF830D9A13468B
:10330000043314680D93002567E79AF800306C2B9E
:1033100000F06D84069840F01000069028E4002A22
:1033200040F0FC86069B9B0640F190830D9A0A991B
:103330001368CD170846043229460D92C3E90001EF
:10334000FFF7E3BB069B43F0200306939AF8003097
:103350000EE40D9A0F93166800248DF86740171D30
:10336000002E00F06985002DC0F225852A462146F1
:103370003046FFF7EDF8002800F09985831B0C9389
:10338000A34623EAE3730D970893CDF840B09DF868
:1033900067705AE56E480F92BBF1000F40F07181E3
:1033A0005F464FF0000BCDF830B02EAE46E50F93E0
:1033B000002A40F09D860F9A002A3FF472AC002349
:1033C00001211F4608918DF890208DF867309B46AB
:1033D00010930C9124AE3CE5BBF1000F00F0528637
:1033E0000027002400258FE4594806930F9254EAE1
:1033F00005030D974FF000077FF40DAF0024002563
:1034000009E7239C70E50F9B652B40F3A78012987A
:1034100013990022002302F055FF002800F03381A9
:10342000229B4C4AC9F80020013301340122072BAA
:1034300023942293C9F8042000F3668309F1080954
:103440001B9B119A934203DB069BDB077FF5CAADFA
:10345000229B1599149AC9F8002001330C44072BBC
:103460002394C9F80410229300F3CB8309F10809CF
:10347000119B5D1E002D7FF7B5AD102D229BDFF84F
:10348000D88040F3D1811026099FDDF81CB005E0FB
:1034900009F10809103D102D40F3C68101331034A5
:1034A000072B23942293C9F80080C9F80460EFDD4C
:1034B00021AA5946384602F00FFA00287FF4F8ABEB
:1034C000239C229B0DF1B809E4E70B9B089A9F1AF5
:1034D000002F7FF72DAD102F229BDFF87C8029DD98
:1034E00040464A462146B0461025099CDDF81C900E
:1034F000064604E0103F102F02F1080215DD0133EB
:103500001031072B2391229316605560F2DD21AA1A
:103510004946204602F0E0F900287FF4C9AB103F8D
:10352000102F2399229B2EAAE9DC914632460C46A5
:103530004646904601333C44072B23942293C9F816
:103540000080C9F8047000F3458209F10809EFE42E
:10355000306900084C69000850690008119B229DE1
:10356000012B40F30C82013501340123072D2394F4
:103570002295C9F80060C9F8043000F3118209F1FE
:103580000809159A149BC9F8003001351444072D19
:1035900023942295C9F8042000F30F8209F1080949
:1035A000002312981399002202F08CFE119B002830
:1035B00040F0C480013B013501361C44072D2295A3
:1035C0002394C9F80060C9F8043000F3F48009F1CD
:1035D0000809169AC9F80420013514441DAB072DBB
:1035E00023942295C9F800307FF7FAAC21AA0799F5
:1035F000099802F071F900287FF45AAB239C0DF171
:10360000B809EFE421AA0799099802F065F90028A2
:103610003FF436ADFFF74CBB21AA0799099802F099
:103620005BF900287FF444AB239C0DF1B809C6E494
:1036300021AA0799099802F04FF900287FF438ABC6
:10364000239C0DF1B8095FE421AA0799099802F0BB
:1036500043F900287FF42CAB239C0DF1B80963E4F7
:10366000BBF1000F8DF86770C0F25A8222F0800320
:10367000069354EA05037FF4CEADBBF1000F3FF48F
:103680008FAE0027BAE61B9D002D40F34B82109BA6
:10369000119A9342A8BF1346002B1D460DDD229BB5
:1036A000C9F8006001332C44072B2394C9F8045057
:1036B000229300F3888309F10809109B002DA8BF0D
:1036C0005B1B002B1D4640F3F780102D229BDFF87B
:1036D000588540F30B8241462246B0461027DDF85C
:1036E00024B0079C0E4605E009F10809103D102D95
:1036F00040F3F88101331032072B2392229389E89B
:10370000C000F1DD21AA2146584602F0E5F8002864
:103710007FF4CEAA239A229B0DF1B809E6E721AAED
:103720000799099802F0D8F800287FF4C1AA9DF8FB
:103730006770239C0DF1B809FFF7D6BB5E1E002E03
:103740007FF747AF102EDFF8E08429DDCDF830A0F9
:103750001027C246DDF824B0DDF81C8004E0103EDE
:10376000102E09F1080918DD01351034072D2394B6
:103770002295C9F800A0C9F80470F0DD21AA4146DD
:10378000584602F0A9F800287FF492AA103E102EA5
:10379000239C229D0DF1B809E6DCD046DDF830A06F
:1037A000C9F8008001353444072D23942295C9F8C7
:1037B00004607FF70CAF21AA0799099802F08CF8F2
:1037C00000287FF475AA239C229D0DF1B80900E71B
:1037D000069911F0100200F05E810D988DF86730A7
:1037E000BBF1000F046800F104074FF0000533DB64
:1037F0000A4622F08002069254EA05020D971F46FF
:103800007FF4FFAACCE4069BD9062CD4069B5A066B
:1038100029D50D99B1F900400431E51722462B4610
:103820000D91FFF7DBBAB84601332C44072B2394E4
:103830002293C9F80080C9F804507FF7D1ABD5E6D0
:103840000D998DF86730BBF1000F0C6801F104078A
:103850004FF0000580F2BA810D971F4654EA050328
:103860007FF4CFAAA1E40D9A146813460433E51738
:1038700022460D93002A2B4673F10003BFF6B3AA2C
:1038800064424FF02D0765EB4505BBF1000F8DF845
:103890006770FFF6B6AA069B23F080030693FFF736
:1038A000B0BA21AA0799099802F016F800287FF407
:1038B000FFA9239C0DF1B809109A1B9B32441746AF
:1038C000119A93424ADB069AD50747D411990E44C0
:1038D000F51BCB1A9D42A8BF1D46002D2E460DDDBF
:1038E000229AC9F8007001322C44072A2394C9F89F
:1038F0000450229200F3918209F10809002EACBF16
:103900009D1B1D46002D7FF76DAB102D229BDFF810
:10391000188389DD47461026DDF81CB0DDF82480C9
:1039200005E009F10809103D102D7FF77CAF013348
:103930001034072B23942293C9F80070C9F804604F
:10394000EFDD21AA5946404601F0C6FF00287FF46A
:10395000AFA9239C229B0DF1B809E4E7229A1598A0
:103960001499C9F8001001320444072A2394C9F8B5
:103970000400229200F3338209F10809A6E7069BAE
:10398000D8073FF5F0AD013501340123072D23940D
:103990002295C9F80060C9F804307FF718AE0AE72D
:1039A00021AA0799099801F097FF00287FF480A9C0
:1039B000239C229D0DF1B809E3E521AA07990998F6
:1039C00001F08AFF00287FF473A9239C229D0DF14A
:1039D000B809E5E521AA0799099801F07DFF0028BB
:1039E0007FF466A9239C0DF1B809FFF7A1BA1298DC
:1039F000139901F047FF002840F018810699874E7F
:103A0000874B9DF86770109021F0800106910F9907
:103A10000322834608924729D8BF1E460C92FFF71F
:103A200014BA069911F0400300F0D2800D988DF879
:103A30006720BBF1000F048800F104074FF0000578
:103A400080F273810D970027FFF75EB9069BDF06B2
:103A50000BD4069B5E0608D50D9A136804320D92AE
:103A6000BDF828201A80FFF750B80D9A1368043269
:103A70000D920A9A1A60FFF748B80D9A069B13F048
:103A8000400F134603F104030CBF146814880D9310
:103A90000025FFF7A2BB069911F040033FF4D0AE1A
:103AA0000D988DF86720BBF1000F048800F1040722
:103AB0004FF00005C0F2638121F08003069354EAC1
:103AC00005030D9717467FF49CA9FFF769BB0027F4
:103AD000BB458DF86770FFF691AC069B23F0800321
:103AE000069359E4144632464646904601332C4428
:103AF000072B23942293C9F80080C9F804503FF79C
:103B0000D0AE09F10809D7E621AA0799099801F072
:103B1000E3FE00287FF4CCA8239C0DF1B8098FE4C4
:103B20000D9F64E4229B3F4AC9F800200133013411
:103B30000122072B23942293C9F8042000F30F815C
:103B400009F108092DB9119B1BB9069BDF077FF509
:103B500049AA229B1599149AC9F8002001330C44F4
:103B6000072B2394C9F80410229300F3D68109F19E
:103B700008096D42002D40F31181102DDFF8A88057
:103B800040F33E8141462246B0461027DDF824B07E
:103B9000079C0E4605E009F10809103D102D40F381
:103BA0002B8101331032072B2392229389E8C00026
:103BB000F1DD21AA2146584601F08EFE00287FF44F
:103BC00077A8239A229B0DF1B809E6E7069A10E63A
:103BD0000D998DF86730BBF1000F0C6801F10407F7
:103BE0004FF00005FFF62EAF069AFFF7ABBA069B23
:103BF00043F0200306930AF1010A9AF80030FEF719
:103C0000B7BF21AA0799099801F066FE00287FF442
:103C10004FA8239C0DF1B8092AE400BF18690008D9
:103C2000146900084C690008506900080F9BBBF13B
:103C3000FF3F23F02003089300F09E80472B04D120
:103C4000BBF1000F08BF4FF0010B069BDDF8488069
:103C500043F480730E93139B1F1EB6BF03F10047FE
:103C600000232D2317930F9B662B00F07781462BA3
:103C700000F09B81089B1FA8452B1CA90CBF0BF1D2
:103C800001055D46049003911BA802213B4602906A
:103C9000424601950091099800F046FB0F9B672B67
:103CA000064600F0E0800F9B472B00F0EC80741973
:103CB000404639460022002302F004FB002840F071
:103CC000F4801F9B9C4206D930215A1C1F92197008
:103CD0001F9B9C42F9D89B1B1193089B472B00F01C
:103CE000DD800F9B652B40F307820F9B662B1B9B90
:103CF000109300F04C81109A11998A42C0F21F81F2
:103D0000069BD90700F1938122EAE2730C926722A5
:103D10000F92179A002A40F0AC8008930E9B0693EE
:103D200093469DF86770FFF790B821F080030693E3
:103D300054EA05030D973FF44FAB1746FEF7E4BF77
:103D400040210998FDF7B4F9079A10601061002826
:103D500000F0C781079A40235361FEF7CABE21AA2B
:103D60000799099801F0B8FD00287EF4A1AF1B9DCA
:103D7000239C0DF1B809E5E64FF0060B65E70D97BA
:103D800017466BE521AA0799099801F0A5FD0028BF
:103D90007EF48EAF239C229B0DF1B8091199C9F8CE
:103DA000006001330C44072B23942293C9F80410BC
:103DB0007FF716A91AE43046FDF722FFA346034613
:103DC0000C90FFF7DEBA21AA0799099801F084FD4B
:103DD00000287EF46DAF239C0DF1B8096DE421AA93
:103DE0000799099801F078FD00287EF461AF1B9BCC
:103DF000239C0DF1B80969E51446324646469046C3
:103E000001332C44072B23942293C9F80080C9F86E
:103E10000450B7DC09F10809C0E721AA07990998FD
:103E200001F05AFD00287EF443AF1B9B119A239C9E
:103E3000D31A0DF1B80961E5062D2B4628BF0623DC
:103E40000C9323EAE373B3460D9710963746089315
:103E5000B84EFEF7FABF0693FFF7DDB92D278DF8B0
:103E60006770FFF736B9069BDA073FF520AF1F9B57
:103E700031E72D2708930E9B06938DF867704FF05E
:103E8000000BFEF7E3BF069BDB0700F19F801F9B43
:103E90009B1B1193089B472B40F02E811B9BDD1C25
:103EA00010DB9B450EDB109325E7234613E725EA3D
:103EB000E5730D9708930C95834610909DF86770F5
:103EC000FEF7C3BF0F9A023A0F92013B002B9DF8F9
:103ED0003C201B93B8BF5B428DF87420B4BF2D22E9
:103EE0002B22092B8DF8752076DC303330228DF8AB
:103EF00077308DF876201EAB1DAA9B1A119A169367
:103F0000012A13440C9340F3D5800C9B002201330B
:103F10000C93109223EAE373FBE621AA0799099810
:103F200001F0DAFC00287EF4C3AE1B9D239C229B8B
:103F30000DF1B8091DE6A2460025FEF71BBE109B39
:103F4000002BD8BFC3F10205119BC8BF0125EB1898
:103F500067220C930F9223EAE373DAE61FA81CA9E9
:103F6000049003911BA80321029042463B46CDF8E2
:103F700004B00091099800F0D7F95D46064600EBC1
:103F80000B043378302B62D01B9D2C4490E6002B21
:103F900040F38780BBF1000F51D1069AD4074ED46D
:103FA0001A460C9223EAE373B3E61FA81CA90490F7
:103FB00003911BA80321029042463B46CDF804B072
:103FC0000091099800F0B0F95D4606460F9B462B1C
:103FD00006EB0504D5D06BE60DF183042046564A66
:103FE00082FB0321DA17C2EBA10202EB8201A3EBF1
:103FF000410303F13001092A134600F8011DEEDCEC
:1040000002463033DBB202F8013D944262D90DF131
:104010007601024601E012F8013B01F8013B9442AF
:10402000F9D1631C1B1A0DF17602134464E7109B4F
:10403000672201330C930F9223EAE37369E6109B26
:104040000BF101052B440C9323EAE37361E6404630
:1040500039460022002302F035F9002894D1C5F139
:1040600001051B952C4423E60D989AF8013005684C
:104070000430002D0D90A246BEF67AAD4FF0FF350C
:10408000FEF776BD069BDB075F4605D53EAE3023C7
:1040900006F8413DFEF7CFBECDF830B02EAEFEF7AC
:1040A000CDBEBBF1000F0FD1069BD8070CD4012366
:1040B0000C932EE6069B13F001037FF426AF1093BA
:1040C0000C9B23EAE37324E60BF102030C9323EA2F
:1040D000E3731EE60DF176030EE78DF86710FEF729
:1040E000F8BD099A0C2313604FF0FF30FEF7E9BDCD
:1040F0008DF86710FFF75FB91B9BE6E68DF8671038
:10410000FFF705B88DF86710FFF7EFB88DF8671067
:10411000FFF755B88DF86710FFF723B88DF86710D3
:10412000FFF700B98DF86710FEF7B4BF8DF8671080
:10413000FEF741BE446900086766666638B52F4BD6
:104140001B6805460C4613B19A6B002A36D0A2892B
:1041500093B218070CD52069A8B113F001021ED044
:10416000636900225B42A361A260F0B1002038BD08
:10417000D9063BD5580725D4206942F00803A3810E
:104180009BB20028E9D103F42072B2F5007FE4D09D
:104190002846214600F0F8FFA3892069DDE799074A
:1041A00058BF6269A2600028E0D1A3891A06DED553
:1041B00043F04003A3814FF0FF3038BD1846FCF7B1
:1041C00043FFC4E7216B49B104F14003994203D096
:1041D0002846FDF73FFFA2890023236322F0240233
:1041E00000232069636092B22060C6E742F040027B
:1041F00009232B604FF0FF30A28138BD4804002016
:1042000002690B69934200F38D802DE9F04F03F1B1
:10421000FF3801F1140700F1140B57F828205BF860
:1042200028304FEA880483B00132B3FBF2F90BEB7C
:104230000403009407EB040A0193B9F1000F39D08D
:104240000025BC46DE462B465CF8046BDEF80020F9
:10425000B4B209FB0455360C2C0C09FB0644ADB274
:104260005B1BA6B213FA82F3C6EB124606EB23469B
:104270009BB243EA0643E2454EF8043B4FEA14453D
:104280004FEA2643E0D2009B5BF8033093B9019CD0
:10429000231F9B450CD254F8043C4BB9A4F10803EE
:1042A00002E01A68043B1AB99B4508F1FF38F8D3BD
:1042B000C0F81080044601F0DFF900282EDB09F178
:1042C00001095D46002357F8041B28688AB29A1A30
:1042D000090C12FA80F2C1EB104303EB224391B2B6
:1042E00041EA0341BA4545F8041B4FEA2343EAD2A9
:1042F0005BF828200BEB880382B91A1F93450BD279
:1043000053F8042C42B9083B02E01A68043B1AB97E
:104310009B4508F1FF38F8D3C4F81080484603B035
:10432000BDE8F08F002070472DE9F04F016C97B089
:104330008146239C92469B4649B1426C4A600123C8
:1043400093408B6000F0B6FF0023C9F84030BBF10A
:10435000000FD84633DB00232360A54B1A4608EA3A
:104360000303934214D0504659460022002301F023
:10437000A9FF054648B3229A01231360249B002B12
:1043800000F0C5809B481860013817B0BDE8F08F79
:10439000229A42F20F731360BAF1000F00F0A2806C
:1043A0009548249B002BF0D0C378002B00F0B180FF
:1043B00000F10803249A136017B0BDE8F08F0123C1
:1043C0002BF000482360C346C7E714AA15AB01923F
:1043D000009352465B46484601F0F8F95FEA1854EC
:1043E000089040F08880149D159C2C4404F23243C0
:1043F000202B40F39182C3F1400304F2124008FAEB
:1044000003F82AFA00F040EA080001F07DFC0123DD
:10441000013CA1F1F87110930022784B01F036FBBA
:104420006DA3D3E9002301F0E5FC6DA3D3E90023DC
:1044300001F02EFB064620460F4601F075FC6AA3EC
:10444000D3E9002301F0D6FC02460B46304639463C
:1044500001F01EFB06460F4601F066FF00220490A5
:1044600000233046394601F037FF002840F0308203
:10447000049E162E00F22982614B03EBC603D3E99A
:10448000000152465B4601F045FF002800F04982DA
:10449000731E049300230C932C1B631E029300F1E4
:1044A000328200230593049B002BC0F22382029AE0
:1044B0000B9311461944002302910A93209B092B68
:1044C00029D8052B40F35886043B20930025209BD8
:1044D000023B032B00F23586DFE813F02C032802A1
:1044E00037035904444B474AC8F31300002814BF4C
:1044F0001846104655E7CBF3130343F07F51109550
:104500005046A4F2FF3441F44011149D84E73E4824
:104510003BE7C31C4EE70021C9F8441048462091F0
:1045200000F0A2FE4FF0FF330693209A0D93012373
:1045300007902192C9F840000993159B002BC0F207
:10454000D180049A0E2A00F3CD802D4B03EBC203D9
:10455000D3E90034CDE90234219B002BC0F2008363
:1045600056465F4650465946DDE902AB52465B4629
:1045700001F06AFD01F0D8FE044601F0D5FB524679
:104580005B4601F037FC0B4602463946304601F0E7
:104590007DFA079D04F130032B70069B012B064624
:1045A0000F4605F1010562D00022184B01F022FCF4
:1045B0000022002306460F4601F084FE00287ED12B
:1045C000CDF81490DDF818A0DDF81CB0DDE9028903
:1045D00029E000BFAFF3008061436F63A787D23F3C
:1045E000B3C8608B288AC63FFB799F501344D33FE2
:1045F0000000F07F4D6900086C6900080000F83F7A
:1046000088690008606900084C69000800002440BF
:1046100001F0F0FB0022002306460F4601F052FE97
:10462000002840F0B78342464B463046394601F0F9
:104630000BFD01F079FE044601F076FB42464B4645
:1046400001F0D8FB02460B463046394601F01EFA0F
:1046500004F1300E05F801EBCBEB050ED64506460E
:104660000F464FF00002B04BD2D1DDF81490324625
:104670003B463046394601F00BFA06460F460246E5
:104680000B46DDE9020101F027FE40B932463B4608
:10469000DDE9020101F016FE88B1E3070FD515F838
:1046A000014C079A6B1E04E09A4200F02C8413F828
:1046B000014D392C03F10105F6D001341C70089925
:1046C000484600F0F7FD0022049B2A70229A01332D
:1046D0001360249B002B00F0A78307981D6017B080
:1046E000BDE8F08F099A002A00F01281209A012A71
:1046F00040F35882069B0A9A5F1EBA42C0F2978323
:10470000D71B069B002BC0F28A84059D069B059A49
:104710001A440592029A01211A444846029200F076
:1047200061FE064665B1029900290B4608DDA942E3
:10473000059AA8BF2B46D21AED1ACB1A05920293FE
:104740000A9B002B40F3FC82099A002A00F00182A8
:10475000002F00F0FE8131463A46484600F0E4FE64
:10476000DDF82080014642460646484600F044FEF9
:1047700041460446484600F09DFD0A9BDB1B0A9318
:1047800040F0E6810121484600F02CFE0B9B80465C
:10479000002B00F0198201461A46484600F0C4FE7C
:1047A000209B012B804640F3F8820027D8F8103078
:1047B00008EB8303186900F0C7FDC0F12000029ADE
:1047C000104410F01F0000F0F681C0F12003042B0C
:1047D00040F3CA84059BC0F11C00034405931346B3
:1047E000034405440293059B002B05DD21461A4630
:1047F000484600F0E9FE0446029B002B05DD4146D9
:104800001A46484600F0E0FE80460C9B002B40F024
:104810007C82069B002B40F39582099B002B40F085
:10482000F581DDF81CB0069F5D4602E000F04CFD0E
:10483000044641462046FFF7E3FC00F1300A05F844
:1048400001ABCBEB0503BB424FF00A024FF0000374
:1048500021464846EADB079B069A012AACBF9B1813
:1048600001331D464FF0000B21460122484600F05F
:10487000ABFE4146089000F0FFFE002840F30D8398
:1048800015F8012C07996B1E04E08B4200F078822A
:1048900013F8012D392A03F10105F6D001321A70FF
:1048A0004146484600F006FD002E3FF408AFBBF13C
:1048B000000F05D0B34503D05946484600F0FAFC36
:1048C0003146484600F0F6FCF9E601230C93E3E597
:1048D000DDF81080404601F027FA02460B463046CC
:1048E000394601F0EFFC00287FF4C2AD08F1FF3338
:1048F0000493BDE5059A049BD21A5B420A930023F8
:1049000005920B93DAE55B42059300230293CAE517
:104910000A9F059D099E05E7C3F120080AFA08F0E1
:1049200073E50C90B8E500BF000024400023099314
:10493000049B219A13440D930133002B069340F3FB
:104940008382069C26460021172EC9F844100BD9F5
:10495000012204235B0003F11400B042114602F16E
:104960000102F7D9C9F84410484600F07DFC0E2C2E
:104970000790C9F840003FF6E0AD002D3FF4DDADF3
:1049800004995746D8460029CDE90E7840F3928223
:10499000914B01F00F020E1103EBC203F006D3E9B5
:1049A000004540F14C828D4B50465946D3E90823CF
:1049B00001F04AFB06F00F0682468B464FF00308D3
:1049C00086B1864FF10709D520462946D7E900234D
:1049D00001F010FA08F1010804460D46761007F1BF
:1049E0000807EFD122462B465046594601F02CFBD2
:1049F00006460F460C9B43B10022794B30463946A0
:104A000001F06AFC002840F02083404601F08CF958
:104A100032463B4601F0EEF9724B002201F038F8C5
:104A2000069B0446A1F15075002B00F0DF81049B2A
:104A3000DDF818801193099B002B00F09782664BDC
:104A4000694903EBC80353E90223002001F0FCFA93
:104A500022462B4601F01AF882468B4630463946EC
:104A600001F062FC044601F05FF902460B46304655
:104A7000394601F00BF83034079DE4B206460F4684
:104A80002C7002460B4650465946013501F042FC57
:104A900000284CD132463B460020514900F0F6FF39
:104AA00002460B465046594601F034FC002840F0BF
:104AB0000D83B8F1010F40F3B381079B98440DE0DB
:104AC0000020474900F0E2FF52465B4601F004FC3B
:104AD000002840F0FB82454500F0A281504659462F
:104AE0000022424B01F086F90022404B82468B4661
:104AF0003046394601F07EF90F46064601F014FCB7
:104B0000044601F011F902460B463046394600F0E2
:104B1000BDFF3034E4B252465B4605F8014B064611
:104B20000F4601F0D9FB32463B460028C8D0119B06
:104B30000493C4E500230993219B002B40F3898152
:104B40001E461C460D930693FDE601230993F3E7E9
:104B500008940A9A0899484600F0E6FC044611E6D3
:104B6000069B002B3FF7FCAC40F0DA820022204B82
:104B7000DDE9020101F03EF952465B4601F0C0FB5F
:104B8000DDF818804646002800F0F280219B079D42
:104B9000DB4304934146484600F08CFB002E3FF473
:104BA0008EAD8DE6109A002A00F0418203F2334365
:104BB0000A9F059DABE51C20059B03440593029BC2
:104BC0000344054402930EE6209B012B40F38282AE
:104BD0000B9F0120F3E500BF88690008506A0008B8
:104BE0000000F03F00001C400000E03F00002440B7
:104BF00000001440314600230A22484600F064FBBE
:104C00000D9B002B064640F397820693002D05DD91
:104C100031462A46484600F0D7FC0646002F40F0B1
:104C20007C810596069B079ADDF814B0013BD318EA
:104C300008930AF0010309931746C24651462046DD
:104C4000FFF7DEFA31460546204600F015FD5A46CC
:104C500002905146484600F02FFDC268804605F19B
:104C60003003002A49D101462046069300F004FD96
:104C700041460590484600F01DFB059A069B2AB95F
:104C8000209919B90999002900F036820299002962
:104C9000C0F2E48005D1209919B90999002900F0E2
:104CA000DD80002A00F34D81089A3B7007F101086E
:104CB0009742454600F05481214600230A22484687
:104CC00000F002FB5E45044631464FF000034FF012
:104CD0000A0248460BD000F0F7FA59460646002370
:104CE0000A22484600F0F0FA47468346A6E700F05D
:104CF000EBFA474606468346A0E701464846059339
:104D000000F0D8FA0122059BC0E74146204600F09A
:104D1000B3FC0028BFF67DAD2146049C0023013C76
:104D20000A224846049400F0CFFA099B0446002B5F
:104D30007FF460AF0D9B002B40F3F681069370E586
:104D4000089C1FE5209B022B7FF767AD069B002B7D
:104D500040F0798141460522484600F0B5FA014607
:104D60008046204600F088FC002808947FF70EAFAC
:104D7000049A07993123013204920B704D1C09E704
:104D8000049A01320492079A3123137088E50123B3
:104D90000993CDE5DDF8149091E4BAF1000F7FF4AA
:104DA00004ADCBF31303002B40F03F812BF0004701
:104DB0003F0D3F0537B1059B01330593029B01333E
:104DC000029301270B9B0120002B3FF4F8ACEDE48C
:104DD000404600F0A9FF32463B4601F00BF80022A6
:104DE000BF4B00F055FE0446A1F1507530463946E0
:104DF0000022BC4B00F04AFE22462B4606460F46D8
:104E000001F088FA8046002840F00581224605F12D
:104E100000433046394601F05FFA08B14646B5E630
:104E2000DDE90EABFFF789BB0798FFF7AEBA0A9B27
:104E30000B9A0A97FB1A1A440B92002761E4DDE9EA
:104E40000EAB4FF00208BBE51C460021C9F8441028
:104E50008AE5012421940D940694F6E7002AD046B1
:104E6000CDF814B09A4611DD21460122484600F0E3
:104E7000ABFB4146044600F0FFFB002840F34981AC
:104E8000BAF1390F00F0068105F1310AB34687F80F
:104E900000A07D1C059E089402E504D11AF0010FC4
:104EA00001D0EDE4154615F8013C302B05F1FF3239
:104EB000F8D0F5E4049B5C42002C00F0BF808A4BE4
:104EC00004F00F0203EBC203D3E90023DDE90E0176
:104ED00000F090FF241106460F4600F02A81834D12
:104EE0004FF00208E20709D530463946D5E90023DC
:104EF00000F080FF08F1010806460F46641005F136
:104F00000805EFD176E5079930220A70049A15F862
:104F1000014C01320492FFF7D0BB7168484600F0A3
:104F2000A3F933699A1C0546920006F10C010C3076
:104F3000FCF776FB29460122484600F045FB059028
:104F400070E6392BCDF814B0D04600F0A38003F101
:104F5000010AB34687F800A07D1C059E08949FE4D3
:104F60005A46D046B3469A4616467DE45E4908F155
:104F7000FF3A01EBCA0122462B46D1E9000100F0BD
:104F800039FFCDE912013946304601F0CDF904462A
:104F900000F0CAFE02460B463046394600F076FD68
:104FA000079A3034B8F1010F06460F46147002F12B
:104FB00001051ED0079B03EB080BA84600224C4BB3
:104FC0003046394600F016FF0F46064601F0ACF9B0
:104FD000044600F0A9FE303402460B4630463946FE
:104FE00000F054FD08F8014BC34506460F46E5D1D5
:104FF000554400223F4BDDE9120100F049FD3246E5
:105000003B4601F069F900284CD0119B049315F838
:10501000014CFFF746BB4FF000084646A8E6059B4B
:10502000069A9D1A0023FFF772BB0027CAE6149B5D
:105030000A9F059DC3F13603FFF769BBDDE90E67E3
:105040004FF00208D6E40894A0E5069B002B3FF43D
:10505000BFAE0D9B002B7FF7E3AE0022244B304602
:10506000394600F0C7FE06460F4608F1010000F081
:105070005BFE32463B4600F0BDFE0022184B00F0BE
:1050800007FD049ADDF83480013A0446A1F1507519
:105090001192D0E43922B3460894059E3A707D1CE3
:1050A000FFF7F0BBDDE912230020124900F0EEFC0F
:1050B00032463B4601F02EF908B9B1E6154615F81F
:1050C000013C302B05F1FF32F8D030E5119B049301
:1050D000FFF7E7BABAF1000F7FF47AAD61E600BFDF
:1050E00000001C400000144088690008506A000855
:1050F000000024400000E03F392BCDF814B0D0462A
:10510000DDF808B09A46C5D0BBF1000F3FF7BCAE42
:10511000BCE67FF4BBAE1AF0010F3FF4B7AEAFE6CA
:105120004FF00008464631E5209B022B21DC0D9B09
:1051300004E64FF002085DE4209B022B19DC0D9B76
:1051400063E50024C9F844402146484600F08CF845
:105150004FF0FF3306930D93012307902194C9F874
:1051600040000993FFF7E9B93FF43DABC0F13C00C3
:1051700022E50D9B0693E9E50125FFF7A8B900BFDD
:10518000004870475C0800208B899AB212F0020F29
:105190003CD1F0B50C46B1F90E10002991B005468E
:1051A00019DB01AA00F048FC002812DB029B03F483
:1051B0007043A3F50057B7FA87F7B3F5004F4FEAEE
:1051C00057172AD0A38943F40063A3814FF4806664
:1051D0000BE0A3899AB212F0800F43F40063A3811D
:1051E00014BF40264FF48066002731462846FBF75F
:1051F0005FFFA38940B31A4AEA6343F08003A381A7
:105200002060206166619FB911B0F0BD01F14303D8
:1052100001220B600B614A617047124BA26A9A42ED
:10522000D0D1A3894FF480663343A381E664DCE7E1
:105230002846B4F90E1000F013FC0028E4D0A3892E
:1052400043F00103A381DFE79A05DDD404F14302B3
:1052500043F002030121A381226022616161D3E74F
:105260004D0F0008ED180008C36C70B505460C46DC
:105270004BB153F8240080B1026843F82420002386
:105280000361C36070BD2122042100F0A5FBE86426
:1052900003460028EDD1002070BD012101FA04F67B
:1052A000721D2846920000F097FB0028F3D044605E
:1052B0008660E4E731B1C36C4A6853F822000860A5
:1052C00043F82210704700BFF0B50C6983B00D465B
:1052D000064601F1140E0027DEF8000081B202FB41
:1052E00001310B0C000C02FB003389B2013701EBDA
:1052F0000341BC424EF8041B4FEA1343ECDC3BB1C4
:10530000AA68944207DA05EB8402013453612C61E8
:10531000284603B0F0BD6968019301313046FFF7BC
:10532000A3FF2A69023205F10C01074692000C30F6
:10533000FCF776F9F26C6968019B52F8210028604D
:1053400042F821503D46DEE7030C1B04B3B90004CC
:10535000102310F07F4F04BF0002083310F0704F8D
:1053600004BF0001043310F0404F04BF800002333B
:10537000002807DB420003D4202070470023E8E721
:10538000581C704718467047036813F0070207D08F
:10539000D90720D49A0720D49B08036002207047C5
:1053A00099B209B91B0C102213F0FF0F04BF1B0A9E
:1053B0000832190704BF1B090432990704BF9B0870
:1053C0000232D90704D45B0801D120207047013292
:1053D000036010467047002070475B08036001209F
:1053E000704700BF10B50C460121FFF73DFF0122B9
:1053F0004461026110BD00BF2DE9F04F0D691769CE
:10540000BD4283B00C46164604DA2A4634463D4671
:105410000E461746A368616805EB07089845C8BFA4
:105420000131FFF721FF00F1140C0CEB8809CC458A
:10543000009005D26346002143F8041B9945FBD830
:1054400006F1140202EB870A04F11403524503EB40
:10545000850E54D2CDF80490994652F8043B1FFAB9
:1054600083FBBBF1000F20D000204F466646054667
:1054700000E01E4657F8044B3068A1B283B20BFB24
:105480000131240C000C4B190BFB040000EB134002
:1054900099B2334641EA0041BE454FEA104543F810
:1054A000041BE6D8756052F8043C5FEA134B20D029
:1054B000DCF80030674618464D46002100E03746CC
:1054C0002C88000C0BFB040001449CB23E4644EACD
:1054D000014346F8043B786855F8044B83B2240C2A
:1054E0000BFB043404EB1143AE454FEA1341E6D8FD
:1054F0007B6092450CF1040CAFD8DDF80490B8F154
:10550000000F0BDD59F8043CA9F104091BB105E0BB
:1055100059F8043D13B9B8F10108F9D10098C0F861
:10552000108003B0BDE8F08F12F003032DE9F041C5
:10553000144607462ED10E46A4101CD0BD6C95B360
:10554000E3074FF0000806D4641014D02868A8B10F
:105550000546E307F8D52A4631463846FFF74CFFA3
:10556000B6B17268FB6C641053F82210316043F8D6
:1055700022600646EAD13046BDE8F0812A46294637
:105580003846FFF739FF2860C0F800800546E0E79D
:105590000646D9E75A1E0B4D002355F82220FFF787
:1055A00093FE0646C8E701213846FFF75DFE40F24C
:1055B000712101220023416102610546B864036044
:1055C000BEE700BF7C6900082DE9F04791460A69F3
:1055D0008B684FEA691404EB020808F101059D424B
:1055E0000E468246496804DD5B009D4201F10101DF
:1055F000FADC5046FFF738FE002C00F1140238DDCB
:1056000002EB8403002142F8041B9342FBD134696E
:1056100006F1140119F01F0901EB840E21D0C9F124
:10562000200200240F6807FA09FC4CEA04049C4697
:1056300043F8044B51F8044B8E4524FA02F4F1D898
:10564000CCF804400CB108F10205DAF84C3072686D
:10565000013D53F822100561316043F82260BDE836
:10566000F087043B51F8042B43F8042F8E45F9D8FA
:10567000EBE71346CBE700BF02690B69D21A12D1E0
:105680009B0014301431194410B4034401E09842D3
:105690000BD253F8044D51F8042D9442F7D007D3A0
:1056A000012010BC704710467047002010BC7047A6
:1056B0004FF0FF30F5E700BF2DE9F8430B690F46C7
:1056C00011695B1A002B904617D1890007F114026B
:1056D00008F114055318294401E09A425ED253F8A8
:1056E000046D51F8044DA642F7D060D23B461446F3
:1056F00047464FF00109984606E05DDB07F11405C7
:1057000002F114044FF000097968FFF7ADFDD8F8F5
:1057100010303E69C0F80C9004EB830CA64605EBF4
:10572000860700F1140400235EF8041B55F8048B6F
:105730008AB213FA88F3090C9A1AC1EB184303EBE7
:10574000224392B242EA0342F44544F8042B4FEA62
:105750002343E9D8AF4217D9A446294651F804EBB0
:1057600013FA8EF2131403EB1E4392B242EA034281
:105770008F424CF8042B4FEA2343EFD8ED433D44CE
:1057800025F0030504352C44043C22B954F8043DAB
:10579000013E002BFAD00661BDE8F8830021FFF737
:1057A00063FD0122002302614361BDE8F8832C46BA
:1057B0004FF000091546A7E73B4607F1140408F12E
:1057C000140547464FF0010998469DE72DE9F04141
:1057D00082B001211C46C3F30A571546089EFFF705
:1057E00043FDC4F3130480460FB144F480140194C4
:1057F0001DB302A840F8085DFFF7C6FD002834D1AC
:105800009DE80C00C8F81420002B0CBF01210221D8
:10581000C8F81830C8F81010DFB908EB8103A0F2FF
:10582000324030601869FFF78FFD099BC0EB4110D3
:105830001860404602B0BDE8F08101A8FFF7A4FD62
:10584000019BC8F8143001212030C8F81010002F37
:10585000E3D0099BA7F233470744C0F13500376016
:105860001860404602B0BDE8F0819DE80C00C0F130
:10587000200103FA01F10A43C3400193C8F8142040
:10588000C2E700BF31F0004310B407D0104AA1F5C1
:105890008014944206D8042010BC704710B902202E
:1058A00010BC704701F1FF41094A01F5E001914246
:1058B000F1D9B3F5801F01D20320EDE7054A9342E9
:1058C00001D00020E8E7B0FA80F04009E4E700BF2B
:1058D000FFFFDF7F0000F07F2DE9F04F936883B07A
:1058E0009046002B72D083464FF000091668086876
:1058F0008B680D464C46002C45D09C421F469A466C
:1059000046D3AB8913F4906F2DD06F69296907EBEB
:105910004707C1EB000A07EBD777601C7F105044A4
:10592000B8423A4684BF07463A465B0533D511462E
:105930005846FBF7BDFB002837D052462969019035
:10594000FBF76EFEAA89019B22F4906242F080026E
:10595000AA81CAEB070203EB0A006F612B61286082
:10596000AA602746A24652464946FCF741FED8F8AF
:105970000820AB682868DB1B5044141BAB60286010
:10598000C8F8084014B3D6F8009074680836B2E737
:105990002746A246E7E75846FCF7A4FE0346002840
:1059A000D7D129695846FCF755FB0C23CBF80030BA
:1059B000AB89002243F040034FF0FF30AB81C8F8C1
:1059C0000820C8F8042003B0BDE8F08F0020C8F814
:1059D000040003B0BDE8F08F10B502FB01F1FBF746
:1059E00067FB0446D8B150F8042C22F00302043AB5
:1059F000242A18D8132A14D900231B2A03604360D1
:105A000016D9242A8360C36011BF00F1100203611C
:105A1000436100F118020023136053609360204635
:105A200010BD0246F7E70021FBF794FE204610BDAB
:105A300000F10802EFE700BF38B50B46074C0546FA
:105A40001146184600232360FAF726FF431C00D0B6
:105A500038BD2368002BFBD02B6038BD2C0B0020F9
:105A600038B5074C0023054608462360FAF722FFA5
:105A7000431C00D038BD2368002BFBD02B6038BD01
:105A80002C0B002081F0004102E000BF83F00043B6
:105A900030B54FEA41044FEA430594EA050F08BFC9
:105AA00090EA020F1FBF54EA000C55EA020C7FEA8D
:105AB000645C7FEA655C00F0E2804FEA5454D4EB0A
:105AC0005555B8BF6D420CDD2C4480EA020281EAD4
:105AD000030382EA000083EA010180EA020281EA0C
